:100000000C9434000C9451000C9451000C94510049
:100010000C9451000C9451000C9451000C9451001C
:100020000C9451000C9451000C9451000C9451000C
:100030000C9451000C9451000C9451000C945100FC
:100040000C9451000C9451000C9451000C945100EC
:100050000C9451000C9451000C9451000C945100DC
:100060000C9451000C94510011241FBECFEFD8E026
:10007000DEBFCDBF11E0A0E0B1E0ECE8FAE002C0E5
:1000800005900D92A431B107D9F721E0A4E1B1E0C8
:1000900001C01D92A336B207E1F70E9496000C94AE
:1000A00044050C940000FC019DEC699F912D1124E6
:1000B00096959695969580E3890F8083990F892F61
:1000C000880F880F980F691B605D61831282089505
:1000D000EF92FF920F931F93CF93DF938C01EB016D
:1000E0009B013695279536952795ABE7B4E10E949D
:1000F00035057C01F694E7946E2DC8010E945300EB
:1001000024E62E9DC0012F9D900D1124BE01681B79
:10011000790BC80102960E945300F8011482DF9106
:10012000CF911F910F91FF90EF9008950E94FD02D3
:1001300000E020E540E064E784E191E00E941004E3
:100140002CE541E064E783E491E00E940205C4E10C
:10015000D1E0EF85F889CE010995E989FA8940E077
:1001600060E0CE010995E0915701F091580183E4D8
:1001700091E0099503E411E0D8015696ED91FC91C8
:100180005797C8010995D8015896ED91FC91599758
:10019000C8010995E989FA8940E060E0CE01099536
:1001A000F801668570E0762F66278785682B83E3E4
:1001B00091E00E946800EB8DFC8D63E371E0CE015D
:1001C0000995ED89FE896EE2CE010995D801509618
:1001D0006C9183E391E00E945300EB8DFC8D63E30F
:1001E00071E0CE010995ED8DFE8D60E171E0CE01EB
:1001F0000995D8015A96ED91FC915B97C801099534
:10020000D8015C96ED91FC915D97C8010995E9894B
:10021000FA8940E061E0CE010995F801618983E344
:1002200091E00E945300EB8DFC8D63E371E0CE0101
:100230000995ED89FE896EE2CE010995D8015296A5
:100240006C9183E391E00E945300EB8DFC8D63E39E
:1002500071E0CE010995ED89FE896FEDCE0109951A
:10026000ED89FE8963E4CE01099586CF94EA9093E7
:10027000BC00ECEBF0E090819923ECF79091B90091
:10028000987F9830D9F4880F862B8093BB0084E840
:100290008093BC00ECEBF0E080818823ECF7909138
:1002A000B900987F611105C081E0983141F480E088
:1002B000089581E0903419F480E0089581E0089574
:1002C00094EA9093BC00ECEBF0E090819923ECF77A
:1002D0009091B900987F9031D9F4880F862B809344
:1002E000BB0084E88093BC00ECEBF0E080818823C5
:1002F000ECF79091B900987F611105C081E09831C9
:1003000041F480E0089581E0903419F480E008958C
:1003100081E0089584E98093BC00ECEBF0E08081FB
:1003200084FDFDCF08958093BB0084E88093BC00DA
:10033000ECEBF0E080818823ECF79091B900987F96
:1003400081E0983209F480E00895811104C084E8C6
:100350008093BC0003C084EC8093BC00ECEBF0E025
:1003600080818823ECF78091BB009091B9000895BB
:10037000E9EBF0E080818C7F808388E48093B80093
:100380000895009741F0EFECF7E03197F1F700C0E6
:1003900000000197C1F70895EF92FF920F931F930A
:1003A000CF93DF937B01142F022F882324F41111A4
:1003B00012C0D0E01BC020FF05C060E00E946001B9
:1003C000D82F04C060E00E943601D82FDD2379F3D6
:1003D0000E948A010EC0C0E0F70180810E94930153
:1003E000D82F811103C0CF5FC113F6CF01FF0E9448
:1003F0008A018D2FDF91CF911F910F91FF90EF9088
:100400000895BF92CF92DF92EF92FF920F931F93C6
:10041000CF93DF9300D0CDB7DEB78C017B016A01AB
:10042000B22E6A83FC0180818823A1F091819370B0
:1004300021E030E002C0220F331F9A95E2F72983B2
:1004400020E041E0BE016F5F7F4F0E94CC018983B5
:1004500081111AC0EF20E09471F022E041E0BE016A
:100460006E5F7F4FF80182810E94CC0181110CC028
:100470008FEF898303C0F8018281898320E04B2DAF
:10048000B60189810E94CC010F900F90DF91CF912E
:100490001F910F91FF90EF90DF90CF90BF90089544
:1004A000CF93DF931F92CDB7DEB7498321E0AE0132
:1004B0004F5F5F4F0E9401020F90DF91CF9108952F
:1004C000AF92BF92CF92DF92EF92FF920F931F9362
:1004D000CF93DF9300D0CDB7DEB78C015B016A010B
:1004E000F22E6983FC0180818823A1F091819370B1
:1004F00021E030E002C0220F331F9A95E2F72A83F1
:1005000020E041E0BE016E5F7F4F0E94CC018A83F4
:1005100081114AC0AB20A09409F441C022E041E01F
:10052000BE016F5F7F4FF80182810E94CC018A83F8
:10053000882359F139C0112321F00E948A01812FAB
:1005400033C0F1E0FF1598F48601FA94FA942F2D48
:1005500030E02F5F3F4FC20ED31E760181E00E9434
:10056000A501F80181938F01EE15FF05B9F780E031
:100570000E94A501F60180830E948A0180E014C0D8
:1005800061E00E946001182FD6CFF8018281882394
:10059000BCF7D7CF61E00E943601182FCCCFF8010D
:1005A00082818823BCF7CDCF0F900F90DF91CF9140
:1005B0001F910F91FF90EF90DF90CF90BF90AF9081
:1005C000089521E00E94600208950F93FC0160836A
:1005D00041832283038381E092E09583848380E5D5
:1005E00092E09783868380E692E09187808781EE10
:1005F00092E0938782870F9108950E94B801089531
:100600000E94C1010895FC014F70448761706587A5
:10061000611102C0168602C080E486878685482B59
:10062000468708950F931F93CF93DF93EC01162F06
:100630006A3041F06D3069F440E06D850E9403033B
:1006400000E020C06D856F5F40E00E94030300E082
:1006500019C04E854068EE81FF8160E070E0099529
:10066000082F8F3F79F0EE81FF81412F60E870E025
:10067000CE010995082F4C854F5FE989FA896D8570
:10068000CE010995802FDF91CF911F910F91089591
:100690000F931F93CF93DF938C01C62FA62FA295A4
:1006A000AF70B0E0A050BF4FFC01258936896C9136
:1006B000F90109958F3F59F0CF70AC2FB0E0A050F1
:1006C000BF4FE801ED89FE896C91C8010995DF9162
:1006D000CF911F910F9108951F93CF93DF93EC015A
:1006E000162FEF89F88D672F09958F3F29F0EF8935
:1006F000F88D612FCE010995DF91CF911F9108955B
:100700000F931F93CF93DF938C01EB0180E009C01F
:10071000D8015596ED91FC915697C80109958F3FE8
:1007200019F069916111F4CFDF91CF911F910F9171
:1007300008950F931F93CF93DF938C01EB0180E01B
:1007400009C0D8015596ED91FC915697C8010995BD
:100750008F3F19F069916111F4CFDF91CF911F9113
:100760000F9108951F93CF93DF93EC01EE81FF81EA
:1007700041E060E070E00995182F8F3F51F085E06F
:1007800090E00E940003E989FA8940E060E0CE0130
:100790000995812FDF91CF911F910895CF93DF931A
:1007A000EC018FE090E00E940003EE81FF8148E3BE
:1007B00060E070E0CE0109958F3F79F185E090E02F
:1007C0000E940003EE81FF814CE060E070E0CE010A
:1007D00009958F3F11F185E090E00E940003EE81C2
:1007E000FF8141E060E070E0CE0109958F3FA9F004
:1007F00085E090E00E940003EE81FF8142E060E02E
:1008000070E0CE0109958F3F41F085E090E00E94B5
:100810000003EB89FC89CE010995DF91CF91089502
:100820000F93FC01148615868EEC93E0908B8787DE
:1008300083E093E0928B818B82EB93E0948B838BAC
:1008400082E193E0968B858B88E493E0908F878B91
:100850008CE693E0928F818F80E893E0948F838F72
:1008600089E993E0968F858FCF010E94E5020F9171
:100870000895CF93DF93EC01AC01445F5F4FEA85AD
:10088000FB856FE070E0099581110CC08C858D3B74
:1008900041F4EE81FF8140E960E270E0CE0109950C
:1008A00001C080E0DF91CF9108950F931F93CF9304
:1008B000DF938C01C8E2D0E0AE014A515109400FEC
:1008C000511FD8011A96ED91FC911B97BE01C801EA
:1008D0000995811104C02196CB32D10569F7DF91CA
:1008E000CF911F910F910895FC019785292F2F70AB
:1008F00030E0322F22278685282B84E6829FA001B4
:10090000839F500D1124808960E1869F90011124FE
:1009100092959F70922B978782958F708687852FEF
:1009200082958F70808B0895CF93DF93EC01AC019B
:100930004F5E5F4FEA85FB856BE270E009958111A0
:1009400009C0AE014E5E5F4FEA85FB856CE270E048
:10095000CE010995DF91CF9108950F931F93CF9307
:10096000DF93FC01428950E0542F44278189482BB2
:10097000CA0190588035904338F420E530EB241BB1
:10098000350BC0E8D0E005C09A012055304BC0E0DF
:10099000D0E000EE11E0C901B8010E942105CB01B1
:1009A0008F7799278C0F9D1F818B809FA001819F3E
:1009B000500D909F500D1124C901841B950B9C0173
:1009C000220F331F220F331F280F391FABEABAEA59
:1009D0000E943505929582958F7089279F7089278F
:1009E000828BDF91CF911F910F910895AC01435FEE
:1009F0005F4FDC011A96ED91FC911B9767E270E066
:100A0000099508950F93FC0189E394E0958B848BFD
:100A100085E594E0978B868B84E794E0918F808FB7
:100A200084E994E0938F828F8DEA94E0958F848F90
:100A300086EF94E0978F868FCF010E94E5020F9199
:100A40000895AA1BBB1B51E107C0AA1FBB1FA61715
:100A5000B70710F0A61BB70B881F991F5A95A9F767
:100A600080959095BC01CD010895A29FB001B39FE0
:100A7000C001A39F700D811D1124911DB29F700DA7
:0C0A8000811D1124911D0895F894FFCFF2
:100A8C0030313233343536373839414243444546B8
:040A9C00685061003D
:00000001FF
