:100000000C9434000C9451000C9451000C94510049
:100010000C9451000C9451000C9451000C9451001C
:100020000C9451000C9451000C9451000C9451000C
:100030000C9451000C9451000C9451000C945100FC
:100040000C9451000C9451000C9451000C945100EC
:100050000C9451000C9451000C9451000C945100DC
:100060000C9451000C94510011241FBECFEFD8E026
:10007000DEBFCDBF11E0A0E0B1E0E4EBF8E002C0EC
:1000800005900D92AA31B107D9F721E0AAE1B1E0BC
:1000900001C01D92AF34B207E1F70E9453000C94E7
:1000A00058040C9400000E94A60200E020E540E005
:1000B00064E78AE191E00E94B90322E642E064E746
:1000C00089E391E00E943D04CAE1D1E0EF85F8891F
:1000D000CE010995E0914501F09146014AEA60E0C0
:1000E00089E391E00995E989FA8940E060E0CE0171
:1000F0000995ED8DFE8D60E171E0CE010995A12C91
:10010000B12CC12CD12CE12CF12C09E311E0F0FE33
:1001100003C07E2C709401C07E2CD0FE03C08C2CBA
:10012000809401C08C2CB0FE03C09A2C909401C026
:100130009A2CE989FA8940E060E0CE010995EF89BF
:10014000F88D672DCE010995E989FA8943E060E0D1
:10015000CE010995EF89F88D682DCE010995E989C1
:10016000FA8946E060E0CE010995EF89F88D692DA6
:10017000CE010995D8015296ED91FC915397472DE8
:1001800060E0C8010995D8015296ED91FC91539712
:10019000482D61E0C8010995D8015296ED91FC9176
:1001A0005397492D62E0C8010995BFEFEB1AFB0A8E
:1001B00082E0C80ED11CA4E0AA0EB11CA8CF94EA1C
:1001C0009093BC00ECEBF0E090819923ECF79091D8
:1001D000B900987F9830D9F4880F862B8093BB00A4
:1001E00084E88093BC00ECEBF0E080818823ECF79E
:1001F0009091B900987F611105C081E0983141F478
:1002000080E0089581E0903419F480E0089581E061
:10021000089594EA9093BC00ECEBF0E09081992370
:10022000ECF79091B900987F9031D9F4880F862B24
:100230008093BB0084E88093BC00ECEBF0E080810D
:100240008823ECF79091B900987F611105C081E097
:10025000983141F480E0089581E0903419F480E011
:10026000089581E0089584E98093BC00ECEBF0E010
:10027000808184FDFDCF08958093BB0084E8809346
:10028000BC00ECEBF0E080818823ECF79091B900A2
:10029000987F81E0983209F480E00895811104C0CC
:1002A00084E88093BC0003C084EC8093BC00ECEB3A
:1002B000F0E080818823ECF78091BB009091B90039
:1002C0000895E9EBF0E080818C7F808388E480935F
:1002D000B8000895009741F0EFECF7E03197F1F79F
:1002E00000C000000197C1F70895EF92FF920F93AD
:1002F0001F93CF93DF937B01142F022F882324F4C5
:10030000111112C0D0E01BC020FF05C060E00E94A8
:100310000901D82F04C060E00E94DF00D82FDD2340
:1003200079F30E9433010EC0C0E0F70180810E9482
:100330003C01D82F811103C0CF5FC113F6CF01FF5D
:100340000E9433018D2FDF91CF911F910F91FF906C
:10035000EF900895BF92CF92DF92EF92FF920F93AA
:100360001F93CF93DF9300D0CDB7DEB78C017B0115
:100370006A01B22E6A83FC0180818823A1F09181F9
:10038000937021E030E002C0220F331F9A95E2F70C
:10039000298320E041E0BE016F5F7F4F0E9475011D
:1003A000898381111AC0EF20E09471F022E041E0CE
:1003B000BE016E5F7F4FF80182810E94750181113D
:1003C0000CC08FEF898303C0F8018281898320E00C
:1003D0004B2DB60189810E9475010F900F90DF911E
:1003E000CF911F910F91FF90EF90DF90CF90BF9032
:1003F0000895CF93DF931F92CDB7DEB7498321E0F5
:10040000AE014F5F5F4F0E94AA010F90DF91CF9125
:100410000895AF92BF92CF92DF92EF92FF920F9327
:100420001F93CF93DF9300D0CDB7DEB78C015B0174
:100430006A01F22E6983FC0180818823A1F09181F9
:10044000937021E030E002C0220F331F9A95E2F74B
:100450002A8320E041E0BE016E5F7F4F0E9475015C
:100460008A8381114AC0AB20A09409F441C022E0E4
:1004700041E0BE016F5F7F4FF80182810E947501EC
:100480008A83882359F139C0112321F00E94330156
:10049000812F33C0F1E0FF1598F48601FA94FA94A5
:1004A0002F2D30E02F5F3F4FC20ED31E760181E02B
:1004B0000E944E01F80181938F01EE15FF05B9F7F7
:1004C00080E00E944E01F60180830E94330180E0AB
:1004D00014C061E00E940901182FD6CFF801828173
:1004E0008823BCF7D7CF61E00E94DF00182FCCCF64
:1004F000F80182818823BCF7CDCF0F900F90DF9158
:10050000CF911F910F91FF90EF90DF90CF90BF9010
:10051000AF90089521E00E94090208950F93FC0115
:1005200060834183228303838AEA91E095838483F5
:1005300089EF91E09783868389E092E091878087B5
:100540008AE892E0938782870F9108950E94610163
:1005500008950E946A010895FC014F7044876170FC
:100560006587611102C0168602C080E48687868591
:10057000482B468708950F931F93CF93DF93EC0189
:10058000162F6A3041F06D3069F440E06D850E94AD
:10059000AC0200E020C06D856F5F40E00E94AC02BD
:1005A00000E019C04E854068EE81FF8160E070E098
:1005B0000995082F8F3F79F0EE81FF81412F60E888
:1005C00070E0CE010995082F4C854F5FE989FA89C3
:1005D0006D85CE010995802FDF91CF911F910F91ED
:1005E00008950F931F93CF93DF938C01C62FA62FEF
:1005F000A295AF70B0E0A050BF4FFC0125893689AD
:100600006C91F90109958F3F59F0CF70AC2FB0E094
:10061000A050BF4FE801ED89FE896C91C801099592
:10062000DF91CF911F910F9108951F93CF93DF9387
:10063000EC01162FEF89F88D672F09958F3F29F070
:10064000EF89F88D612FCE010995DF91CF911F9130
:1006500008950F931F93CF93DF938C01EB0180E0FC
:1006600009C0D8015596ED91FC915697C80109959E
:100670008F3F19F069916111F4CFDF91CF911F91F4
:100680000F9108950F931F93CF93DF938C01EB018C
:1006900080E009C0D8015596ED91FC915697C801AC
:1006A00009958F3F19F069916111F4CFDF91CF91D6
:1006B0001F910F9108951F93CF93DF93EC01EE816B
:1006C000FF8141E060E070E00995182F8F3F51F005
:1006D00085E090E00E94A902E989FA8940E060E0A3
:1006E000CE010995812FDF91CF911F910895CF936E
:1006F000DF93EC018FE090E00E94A902EE81FF8180
:1007000048E360E070E0CE0109958F3F79F185E024
:1007100090E00E94A902EE81FF814CE060E070E071
:10072000CE0109958F3F11F185E090E00E94A9026A
:10073000EE81FF8141E060E070E0CE0109958F3FDE
:10074000A9F085E090E00E94A902EE81FF8142E0DD
:1007500060E070E0CE0109958F3F41F085E090E0C8
:100760000E94A902EB89FC89CE010995DF91CF9106
:1007700008950F93FC011486158687E793E0908B0C
:1007800087878CEA92E0928B818B8BE593E0948B48
:10079000838B8BEB92E0968B858B81EF92E0908F31
:1007A000878B85E193E0928F818F89E293E0948F2C
:1007B000838F82E493E0968F858FCF010E948E0213
:1007C0000F910895462FDC011696ED91FC91179735
:1007D00061E070E009950895462FDC011696ED91D1
:1007E000FC91179768E070E0099508950F931F93A7
:1007F000CF93DF93EC01162F042FEE81FF8140E0B1
:1008000060E070E009958F3F59F0612FCE010E94A2
:10081000E2038F3F39F0602FCE010E94EC0303C04A
:100820008FEF01C08FEFDF91CF911F910F9108954E
:10083000637070E06E5F7F4FDC011696ED91FC9166
:100840001797099508951F93CF93DF93EC01142F09
:10085000EE81FF81462F66E070E009958F3F41F001
:10086000EE81FF81412F67E070E0CE01099501C064
:100870008FEFDF91CF911F9108950F93FC0186EFC9
:1008800093E09587848782EE93E0978786878CEE46
:1008900093E0918B808B88E194E0938B828B83E251
:1008A00094E0958B848BCF010E948E020F91089566
:0408B000F894FFCFEA
:1008B4003031323334353637383941424344454692
:0A08C40030302030302030300000CA
:00000001FF
